{"abi":[{"type":"function","name":"ENTRANCE_FEE","inputs":[],"outputs":[{"name":"","type":"uint256","internalType":"uint256"}],"stateMutability":"view"},{"type":"function","name":"enterCompetition","inputs":[{"name":"p_newPlayersArray","type":"address[]","internalType":"address[]"}],"outputs":[],"stateMutability":"payable"},{"type":"function","name":"s_players","inputs":[{"name":"","type":"uint256","internalType":"uint256"}],"outputs":[{"name":"","type":"address","internalType":"address"}],"stateMutability":"view"},{"type":"event","name":"DoS__NewPlayersJoinedCompetition","inputs":[],"anonymous":false}],"bytecode":{"object":"0x608060405234801561001057600080fd5b506108fb806100206000396000f3fe6080604052600436106100345760003560e01c806378f01c6614610039578063ae771f6b14610055578063c1e9aa4514610092575b600080fd5b610053600480360381019061004e9190610540565b6100bd565b005b34801561006157600080fd5b5061007c600480360381019061007791906105bf565b61032b565b60405161008991906105fb565b60405180910390f35b34801561009e57600080fd5b506100a761036a565b6040516100b49190610625565b60405180910390f35b8051662386f26fc100006100d1919061066f565b3414610112576040517f08c379a000000000000000000000000000000000000000000000000000000000815260040161010990610734565b60405180910390fd5b60005b81518110156101ae57600082828151811061013357610132610754565b5b60200260200101519080600181540180825580915050600190039060005260206000200160009091909190916101000a81548173ffffffffffffffffffffffffffffffffffffffff021916908373ffffffffffffffffffffffffffffffffffffffff16021790555080806101a690610783565b915050610115565b5060005b60016000805490506101c491906107cb565b8110156102fb5760006001826101da91906107ff565b90505b6000805490508110156102e757600081815481106101fe576101fd610754565b5b9060005260206000200160009054906101000a900473ffffffffffffffffffffffffffffffffffffffff1673ffffffffffffffffffffffffffffffffffffffff166000838154811061025357610252610754565b5b9060005260206000200160009054906101000a900473ffffffffffffffffffffffffffffffffffffffff1673ffffffffffffffffffffffffffffffffffffffff16036102d4576040517f08c379a00000000000000000000000000000000000000000000000000000000081526004016102cb906108a5565b60405180910390fd5b80806102df90610783565b9150506101dd565b5080806102f390610783565b9150506101b2565b507f59738faabd4840871b44cd57ac15aea802293f84d277593d6ddf70122beb7b0060405160405180910390a150565b6000818154811061033b57600080fd5b906000526020600020016000915054906101000a900473ffffffffffffffffffffffffffffffffffffffff1681565b662386f26fc1000081565b6000604051905090565b600080fd5b600080fd5b600080fd5b6000601f19601f8301169050919050565b7f4e487b7100000000000000000000000000000000000000000000000000000000600052604160045260246000fd5b6103d78261038e565b810181811067ffffffffffffffff821117156103f6576103f561039f565b5b80604052505050565b6000610409610375565b905061041582826103ce565b919050565b600067ffffffffffffffff8211156104355761043461039f565b5b602082029050602081019050919050565b600080fd5b600073ffffffffffffffffffffffffffffffffffffffff82169050919050565b60006104768261044b565b9050919050565b6104868161046b565b811461049157600080fd5b50565b6000813590506104a38161047d565b92915050565b60006104bc6104b78461041a565b6103ff565b905080838252602082019050602084028301858111156104df576104de610446565b5b835b8181101561050857806104f48882610494565b8452602084019350506020810190506104e1565b5050509392505050565b600082601f83011261052757610526610389565b5b81356105378482602086016104a9565b91505092915050565b6000602082840312156105565761055561037f565b5b600082013567ffffffffffffffff81111561057457610573610384565b5b61058084828501610512565b91505092915050565b6000819050919050565b61059c81610589565b81146105a757600080fd5b50565b6000813590506105b981610593565b92915050565b6000602082840312156105d5576105d461037f565b5b60006105e3848285016105aa565b91505092915050565b6105f58161046b565b82525050565b600060208201905061061060008301846105ec565b92915050565b61061f81610589565b82525050565b600060208201905061063a6000830184610616565b92915050565b7f4e487b7100000000000000000000000000000000000000000000000000000000600052601160045260246000fd5b600061067a82610589565b915061068583610589565b925082820261069381610589565b915082820484148315176106aa576106a9610640565b5b5092915050565b600082825260208201905092915050565b7f4d7573742073656e6420656e6f756768206d6f6e657920746f2062652061626c60008201527f6520746f20656e726f6c6c2e0000000000000000000000000000000000000000602082015250565b600061071e602c836106b1565b9150610729826106c2565b604082019050919050565b6000602082019050818103600083015261074d81610711565b9050919050565b7f4e487b7100000000000000000000000000000000000000000000000000000000600052603260045260246000fd5b600061078e82610589565b91507fffffffffffffffffffffffffffffffffffffffffffffffffffffffffffffffff82036107c0576107bf610640565b5b600182019050919050565b60006107d682610589565b91506107e183610589565b92508282039050818111156107f9576107f8610640565b5b92915050565b600061080a82610589565b915061081583610589565b925082820190508082111561082d5761082c610640565b5b92915050565b7f466f7262696464656e2e20506c6179657220697320616c72656164792072656760008201527f697374657265642e000000000000000000000000000000000000000000000000602082015250565b600061088f6028836106b1565b915061089a82610833565b604082019050919050565b600060208201905081810360008301526108be81610882565b905091905056fea2646970667358221220f2567355fb958de8aeacb5b650368eb00409d27a7ac2fc52bca59236e496cef764736f6c63430008130033","linkReferences":{}},"methodIdentifiers":{"ENTRANCE_FEE()":"c1e9aa45","enterCompetition(address[])":"78f01c66","s_players(uint256)":"ae771f6b"},"id":19}