{"abi":[{"type":"function","name":"depositETH","inputs":[],"outputs":[],"stateMutability":"payable"},{"type":"function","name":"getContractBalance","inputs":[],"outputs":[{"name":"","type":"uint256","internalType":"uint256"}],"stateMutability":"view"},{"type":"function","name":"userToETHDepositedBalance","inputs":[{"name":"","type":"address","internalType":"address"}],"outputs":[{"name":"","type":"uint256","internalType":"uint256"}],"stateMutability":"view"},{"type":"function","name":"withdrawETH","inputs":[],"outputs":[],"stateMutability":"nonpayable"}],"bytecode":{"object":"0x6080604052348015600e575f5ffd5b506102888061001c5f395ff3fe60806040526004361061003e575f3560e01c80632a628991146100425780636f9fb98a1461007f578063e086e5ec14610091578063f6326fb3146100a7575b5f5ffd5b34801561004d575f5ffd5b5061006d61005c366004610200565b5f6020819052908152604090205481565b60405190815260200160405180910390f35b34801561008a575f5ffd5b504761006d565b34801561009c575f5ffd5b506100a56100af565b005b6100a56101db565b335f90815260208190526040902054806101405760405162461bcd60e51b815260206004820152604160248201527f596f7520646f206e6f74206861766520656e6f7567682062616c616e6365207460448201527f6f2077697468647261772e20506c65617365206465706f7369742066697273746064820152601760f91b608482015260a4015b60405180910390fd5b6040515f90339083908381818185875af1925050503d805f811461017f576040519150601f19603f3d011682016040523d82523d5f602084013e610184565b606091505b50509050806101c85760405162461bcd60e51b815260206004820152601060248201526f2a3930b739b332b9103330b4b632b21760811b6044820152606401610137565b5050335f90815260208190526040812055565b335f90815260208190526040812080543492906101f990849061022d565b9091555050565b5f60208284031215610210575f5ffd5b81356001600160a01b0381168114610226575f5ffd5b9392505050565b8082018082111561024c57634e487b7160e01b5f52601160045260245ffd5b9291505056fea2646970667358221220baf47e7ae2c60192645115bddbe8d16af136300f9560e6e315019b98ecc1ccb364736f6c634300081d0033","linkReferences":{}},"methodIdentifiers":{"depositETH()":"f6326fb3","getContractBalance()":"6f9fb98a","userToETHDepositedBalance(address)":"2a628991","withdrawETH()":"e086e5ec"},"id":20}