{"abi":[{"type":"function","name":"ENTRANCE_FEE","inputs":[],"outputs":[{"name":"","type":"uint256","internalType":"uint256"}],"stateMutability":"view"},{"type":"function","name":"enterCompetition","inputs":[],"outputs":[],"stateMutability":"payable"},{"type":"function","name":"s_players","inputs":[{"name":"","type":"uint256","internalType":"uint256"}],"outputs":[{"name":"","type":"address","internalType":"address"}],"stateMutability":"view"},{"type":"event","name":"DoS__NewPlayersJoinedCompetition","inputs":[],"anonymous":false}],"bytecode":{"object":"0x6080604052348015600e575f5ffd5b506105788061001c5f395ff3fe608060405260043610610033575f3560e01c8063ae771f6b14610037578063c1e9aa4514610073578063e6df48a51461009d575b5f5ffd5b348015610042575f5ffd5b5061005d600480360381019061005891906102d0565b6100a7565b60405161006a919061033a565b60405180910390f35b34801561007e575f5ffd5b506100876100e1565b6040516100949190610362565b60405180910390f35b6100a56100ec565b005b5f81815481106100b5575f80fd5b905f5260205f20015f915054906101000a900473ffffffffffffffffffffffffffffffffffffffff1681565b662386f26fc1000081565b5f80549050662386f26fc1000061010391906103a8565b341015610145576040517f08c379a000000000000000000000000000000000000000000000000000000000815260040161013c90610469565b60405180910390fd5b5f5f90505b5f8054905081101561020b573373ffffffffffffffffffffffffffffffffffffffff165f82815481106101805761017f610487565b5b905f5260205f20015f9054906101000a900473ffffffffffffffffffffffffffffffffffffffff1673ffffffffffffffffffffffffffffffffffffffff16036101fe576040517f08c379a00000000000000000000000000000000000000000000000000000000081526004016101f590610524565b60405180910390fd5b808060010191505061014a565b505f33908060018154018082558091505060019003905f5260205f20015f9091909190916101000a81548173ffffffffffffffffffffffffffffffffffffffff021916908373ffffffffffffffffffffffffffffffffffffffff1602179055507f59738faabd4840871b44cd57ac15aea802293f84d277593d6ddf70122beb7b0060405160405180910390a1565b5f5ffd5b5f819050919050565b6102af8161029d565b81146102b9575f5ffd5b50565b5f813590506102ca816102a6565b92915050565b5f602082840312156102e5576102e4610299565b5b5f6102f2848285016102bc565b91505092915050565b5f73ffffffffffffffffffffffffffffffffffffffff82169050919050565b5f610324826102fb565b9050919050565b6103348161031a565b82525050565b5f60208201905061034d5f83018461032b565b92915050565b61035c8161029d565b82525050565b5f6020820190506103755f830184610353565b92915050565b7f4e487b71000000000000000000000000000000000000000000000000000000005f52601160045260245ffd5b5f6103b28261029d565b91506103bd8361029d565b92508282026103cb8161029d565b915082820484148315176103e2576103e161037b565b5b5092915050565b5f82825260208201905092915050565b7f4d7573742073656e6420656e6f756768206d6f6e657920746f2062652061626c5f8201527f6520746f20656e726f6c6c2e0000000000000000000000000000000000000000602082015250565b5f610453602c836103e9565b915061045e826103f9565b604082019050919050565b5f6020820190508181035f83015261048081610447565b9050919050565b7f4e487b71000000000000000000000000000000000000000000000000000000005f52603260045260245ffd5b7f466f7262696464656e2e20506c6179657220697320616c7265616479207265675f8201527f697374657265642e000000000000000000000000000000000000000000000000602082015250565b5f61050e6028836103e9565b9150610519826104b4565b604082019050919050565b5f6020820190508181035f83015261053b81610502565b905091905056fea264697066735822122057bba0d538d143cf4af9f976bc4887616a45b814a94d3627cc99ef24fc3d2f0364736f6c634300081e0033","linkReferences":{}},"methodIdentifiers":{"ENTRANCE_FEE()":"c1e9aa45","enterCompetition()":"e6df48a5","s_players(uint256)":"ae771f6b"},"id":19}